:020000040800F2
:10000000A80B00209101000831110008DD0C000848
:100010002D10000899060008A52300080000000024
:10002000000000000000000000000000A11C00080B
:10003000AD0800080000000041170008051E000878
:10004000AB010008AB010008AB010008AB010008E0
:10005000AB010008AB010008B1080008AB010008C3
:10006000AB01000811090008AB010008AB01000852
:10007000AB010008AB010008AB010008AB010008B0
:10008000AB010008AB010008AB010008AB010008A0
:10009000AB010008AB010008AB010008AB01000890
:1000A000AB010008AB010008AB010008AB01000880
:1000B000AB010008AB010008691E0008AB01000895
:1000C000AB010008AB010008AB010008AB01000860
:1000D000AB010008AB010008AB010008AB01000850
:1000E000AB010008AB010008AB01000800F002F80A
:1000F00000F03FF80AA090E8000C82448344AAF183
:100100000107DA4501D100F034F8AFF2090EBAE880
:100110000F0013F0010F18BFFB1A43F0010318473B
:10012000B07E0000D07E0000103A24BF78C878C1AD
:10013000FAD8520724BF30C830C144BF04680C60ED
:10014000704700000023002400250026103A28BF35
:1001500078C1FBD8520728BF30C148BF0B60704739
:10016000642900F09B80002070471FB51FBD10B5AB
:1001700010BD00F063FA1146FFF7F7FF03F07EFFB2
:1001800000F081FA03B4FFF7F2FF03BC02F0A8F914
:100190000948804709480047FEE7FEE7FEE7FEE71B
:1001A000FEE7FEE7FEE7FEE7FEE7FEE70448054957
:1001B000054A064B70470000091E0008ED000008C4
:1001C000A8050020A80B0020A8070020A8070020F1
:1001D000704710B54C1084EA530404D54042C1F175
:1001E000000138BF491E1B4204D55242C3F100032F
:1001F00038BF5B1E00F0C6F814F0804F04D04042B8
:10020000C1F1000138BF491E14F0004F04D0524222
:10021000C3F1000338BF5B1E10BD00000FB40449DA
:1002200010B503AA029800F089F910BC5DF814FB20
:10023000000100202DE9F0410E4604460020206216
:100240002046E168884730B3252805D0D4E901214C
:100250009047206A401CF2E7E16820460027884763
:10026000050018D0A5F14100192802D820354FF417
:1002700000673246294620462760FFF771FF40B1EC
:10028000012804D0F61D26F007060836D8E7361DEB
:10029000D6E72846DAE7206ABDE8F0812DE9F0418B
:1002A0000646002410687529314616A510D0AFF314
:1002B0000080002802DA404213A507E031688A076F
:1002C00001D512A502E0490704D511A5012401E0DA
:1002D000AFF3008000210A2206F1240709E0B0FBF9
:1002E000F2FCB0FBF2F302FB1C00303078541846ED
:1002F000491C0028F3D123462A463046BDE8F04188
:1003000000F0C2B8000000002D0000002B0000002B
:100310002000000040EA010310B59B070FD1042A1A
:100320000DD310C808C9121F9C42F8D020BA19BAC0
:10033000884201D9012010BD4FF0FF3010BD1AB125
:10034000D30703D0521C07E0002010BD10F8013B7A
:1003500011F8014B1B1B07D110F8013B11F8014BA1
:100360001B1B01D1921EF1D1184610BD02F0FF03F4
:1003700043EA032242EA024200F0F4B870477047B1
:100380007047704753EA020C00F069802DE9F04B8A
:100390004FF00006002B1FBFB3FA83F503FA05F4F4
:1003A00024FA05F65E4012BF1643B2FA82F502FA4D
:1003B00005F4C5F120051EBF22FA05FC44EA0C0431
:1003C000203556EA044C4FEA144418BF641C4FF021
:1003D00000084FF00009904271EB030C39D300295B
:1003E00019BFB1FA81F701FA07F6B0FA80F700FAFF
:1003F00007F6C7F120071EBF20FA07FC46EA0C06E5
:100400002037B6FBF4FCA7EB0507103F07F01F0BE6
:10041000CBF120060CFA0BFB2CFA06F644BFB346D0
:100420000026202FA4BF5E464FF0000B5BEA060CAF
:1004300008BF4FF0010B19EB0B09ABFB027C48EB3B
:100440000608C01B06FB02CC0BFB03CC71EB0C01B6
:10045000C1E70B46024641464846BDE8F08B13B55E
:100460004FF000004FF00001AFF30080BDE81C40EA
:10047000704710B500F096F8006810BD10B504463E
:1004800000F090F8046010BD2DE9F0470D46994644
:100490009246044600F124080168880604D5E06904
:1004A00021F01001216000E00120A84201DD471B7E
:1004B00000E00027A1697A1902EB0900081AA0617F
:1004C0002078C00602D42046AFF30080002608E062
:1004D000D4E901211AF806009047206A401C761CD6
:1004E00020624E45F4DB2078C0060AD52046AFF3E3
:1004F000008006E0D4E9012130209047206A401CAA
:100500002062381EA7F10107F4DC07E0D4E90121DD
:1005100018F805009047206A401C2062281EA5F1AB
:100520000105F3DC2046AFF300802078000602D5F9
:100530000220BDE8F0870120FBE70000074B70B503
:100540000D467B4400F037F80446284600F046F894
:1005500010B14FF0FF3070BD204670BD9B330000DE
:100560004FF000020429C0F0128010F0030C00F0DC
:100570003B80CCF1040CBCF1020F18BF00F8012B3A
:10058000A8BF20F8022BA1EB0C0100F02DB85FEA08
:10059000C17C24BF00F8012B00F8012B48BF00F8F4
:1005A000012B7047004870474805002001694A1C2C
:1005B00002610878704700B58FB0CDE901310021A4
:1005C000059105497944CDE9031011466846FFF7C6
:1005D00031FE0FB000BD0000E5FFFFFF007B00F023
:1005E000800070474FF0000200B5134694469646CF
:1005F000203922BFA0E80C50A0E80C50B1F1200136
:10060000BFF4F7AF090728BFA0E80C5048BF0CC0E3
:100610005DF804EB890028BF40F8042B08BF704741
:1006200048BF20F8022B11F0804F18BF00F8012BB3
:100630007047000000487047480500207546FFF7E6
:10064000F9FFAE4605006946534620F0070085468F
:1006500018B020B5FFF7AAFDBDE820404FF0000616
:100660004FF000074FF000084FF0000B21F007019A
:10067000AC46ACE8C009ACE8C009ACE8C009ACE8DD
:10068000C0098D46704710B50446AFF30080204680
:10069000BDE81040FFF776BD00BFFEE738B500208B
:1006A00000906B4601227521682003F041FC2CA0CC
:1006B000FFF7B4FD9DF8000068280ED000BF314858
:1006C000006800F4E06030490843001D2D490860CF
:1006D000BFF34F8F00BF00BFFEE703F0FDFD002812
:1006E0003CD1782004F002FC10B91DA0FFF796FD64
:1006F000782003F0DFFC10B924A0FFF78FFDC8209D
:1007000004F0A6FB10B92BA0FFF788FD02F084FCD3
:1007100010B932A0FFF782FD3D4803F074FC044697
:1007200002F0D4FE10B93BA0FFF778FD40F2731041
:1007300002F01AFB10B941A0FFF770FDC82002F0CB
:10074000F5FD10B947A0FFF769FD04F0CFFC0120CB
:1007500004F07AFA10B94CA0FFF760FD38BD000034
:100760006D70755F7365745F73656E736F72206310
:100770006F6D706C657465202E2E2E2E2E2E0D0A38
:10078000000000000CED00E00000FA056D70755FE0
:10079000636F6E6669677572655F6669666F206311
:1007A0006F6D706C657465202E2E2E2E2E2E0D0A08
:1007B000000000006D70755F7365745F73616D702C
:1007C0006C655F7261746520636F6D706C657465D4
:1007D000202E2E2E2E2E2E0D0A000000646D705F2E
:1007E0006C6F61645F6D6F74696F6E5F6472697660
:1007F00065725F6669726D7761726520636F6D7097
:100800006C657465202E2E2E2E2E2E0D0A000000F3
:100810007C000020646D705F7365745F6F72696542
:100820006E746174696F6E20636F6D706C65746552
:10083000202E2E2E2E2E2E0D0A000000646D705FCD
:10084000656E61626C655F66656174757265206373
:100850006F6D706C657465202E2E2E2E2E2E0D0A57
:1008600000000000646D705F7365745F6669666F99
:100870005F7261746520636F6D706C657465202EA6
:100880002E2E2E2E2E0D0A006D70755F7365745F0F
:10089000646D705F737461746520636F6D706C65F7
:1008A0007465202E2E2E2E2E2E0D0A00704700006D
:1008B00010B51548006840F0100013490860072083
:1008C00001F08AF9114908700846007800F020000C
:1008D00010B100F0C1FF13E00C48007800F04000B8
:1008E00010B100F0A7FC0BE00848007800F0100001
:1008F00030B100F0B1FF05480178272001F0B0F9D0
:10090000012000F08FF810BD14080140EA0000201B
:1009100010B500F0CBF91B4801681B48006802F0D5
:100920003FF91A4908601A480168006804F080FD20
:100930001849086016480168006804F0A3FC1649CD
:1009400008601248006813490968084410490860A3
:100950000846006810490968401A104908600C48A8
:1009600000680D49096808440D49086001F01CFD44
:100970000B4801680948006801F008FA082000F0F7
:1009800051F810BDA00000209C000020A400002011
:10099000B0000020A8000020AC00002000000020D3
:1009A000040000201FB50121084600F0DBFE0121F4
:1009B0001A4800F033F90121082000F0D3FE082086
:1009C000ADF8000048208DF803006946144800F097
:1009D00099F80121084600F0C5FE0321012000F02E
:1009E00071F80820029000208DF80C000C208DF882
:1009F0000D0001208DF80E0002A800F019F8092062
:100A00008DF8040001208DF805008DF806008DF8A2
:100A1000070001A800F030FC1FBD000000023000FC
:100A2000000C0140014908607047000014040140B7
:100A3000002123498279002A3AD00A4612680368C5
:100A40009A430B461A600A1D126803689A430B1DED
:100A50001A60027911440A6803681A430A60184A46
:100A60000832126803689A43154B08331A601A1D3E
:100A7000126803689A43124B0C331A604279102AA9
:100A80000ED11A1F126803681A430D4B08331A60FF
:100A90001A1D126803681A43094B0C331A600DE0E3
:100AA0000749427911440A6803681A430A6005E05D
:100AB000027911440A6803689A430A60704700008B
:100AC0000004014030B500228B071C0F0F2303FAEE
:100AD00004F20B4B8C1053F824309343084C8D10C8
:100AE00044F8253023468C1053F824308C07240F0B
:100AF00000FA04F42343024C8D1044F8253030BD35
:100B0000080001402DE9F0410246002500260020A2
:100B100000230024002791F803C00CF00F0591F882
:100B200003C00CF0100CBCF1000F03D091F802C010
:100B30004CEA050591F800C0BCF1000F31D01468F3
:100B400000202BE04FF0010C0CFA00F3B1F800C0CC
:100B50000CEA03069E4220D183004FF00F0C0CFAE2
:100B600003F7BC4305FA03FC4CEA040491F803C004
:100B7000BCF1280F06D14FF0010C0CFA00FCC2F8B2
:100B800014C00AE091F803C0BCF1480F05D14FF042
:100B9000010C0CFA00FCC2F810C0401C0828D1D38C
:100BA0001460B1F800C0BCF1FF0F34DD54680020C0
:100BB0002EE000F1080C4FF0010808FA0CF3B1F830
:100BC00000C00CEA03069E4221D183004FF00F0CB7
:100BD0000CFA03F7BC4305FA03FC4CEA040491F851
:100BE00003C0BCF1280F05D100F1080C08FA0CF87D
:100BF000C2F8148091F803C0BCF1480F07D100F18E
:100C0000080C4FF0010808FA0CF8C2F81080401CDC
:100C10000828CED35460BDE8F0810000F0B50A4644
:100C2000002300240021002500F00046B6F1004F0B
:100C300002D11D4EF16901E01B4E7168C0F30345FE
:100C400083B200F44016B6F5401F08D121F0706160
:100C5000154E766826F07066134F7E6012E000F441
:100C60008016B6F5801F06D1032606FA05F4A143C7
:100C700041F0706106E0460D360103FA06F6B14315
:100C800041F0706122B1460D360103FA06F6314398
:100C900000F00046B6F1004F02D1034EF16101E0D1
:100CA000014E7160F0BD00000000014010B500F081
:100CB000EDFD06480068064908600649B1F90200E2
:100CC00005F042FB0449086010BD000064000020EC
:100CD0009C00002054000020A000002000BFFEE780
:100CE00010B500200E4908600E48006820F47040DE
:100CF0000C4908600846006840F440500860002035
:100D00000949C1F8AC01012001F0EAFF01200449C2
:100D1000086001F0E5FF00200349C1F8A80110BDFB
:100D2000A8812142040C01400080214208B5012124
:100D3000082000F017FD4FF44060ADF800001020CF
:100D40008DF8030003208DF8020069460148FFF783
:100D5000D9FE08BD000C014010B500200E49086006
:100D60000E48006820F470400C490860084600688E
:100D700040F44050086001200949C1F8AC0101F07D
:100D8000AFFF01200449086001F0AAFF00200449D8
:100D9000C1F8A80110BD0000A8812142040C014047
:100DA0000080214270B5054600241748006820F4F1
:100DB0007040154908600846006840F4004008602B
:100DC000002616E0002011490860022001F088FF8B
:100DD00001200F49C1F8A8016006040E0B487C38B9
:100DE000006808B1601CC4B2022001F079FF701CD9
:100DF000C6B2082EE6DB15B1FFF772FF01E0FFF780
:100E0000ABFF204670BD0000040C0140A8812142C8
:100E10000080214270B504461448006820F47040F8
:100E2000124908600846006840F4405008600020FD
:100E30000F490860002516E0E0090D49091D08600A
:100E40006006040E012001F04BFF01200949C1F8A2
:100E5000A80101F045FF002005490860012001F0CC
:100E60003FFF681CC5B2082DE6DB70BD040C0140D5
:100E7000A88121420080214210B51648006820F464
:100E80007040144908600846006840F4405008600B
:100E90000120114908601148D0F82C0108B9002040
:100EA00010BD01200C49091F086001F019FF002046
:100EB0000A49C1F8AC0108488038006808B1002030
:100EC000EEE7012001F00CFF00200349091F086034
:100ED0000120E5E7040C0140AC8121420080214261
:100EE00010B50E48006820F470400C4908600846B0
:100EF000006840F440500860002009490860094932
:100F0000C1F8AC01012001F0EBFE012004490860AA
:100F10000449C1F8AC0101F0E3FE10BD040C01402E
:100F2000A88121420080214210B5002415480068A4
:100F300020F47040134908600846006840F40040FF
:100F4000086001201049086001F0CAFE01200F4925
:100F5000C1F8A80101F0C4FE0AE0601CC4B2322C42
:100F600003DDFFF7BDFF002010BD012001F0B8FE3A
:100F70000548803800680028EFD10349091F086040
:100F80000120F1E7040C0140AC81214200802142A4
:100F900010B50446204604F051F8064991FBF0F3E1
:100FA0004FF6D360834201D9024600E09AB2104660
:100FB00010BD0000C0090E000146072323EA01020C
:100FC0001202054B18684FF6FF031840034B1843F5
:100FD0001043014B186070470CED00E00000FA056B
:100FE000F0B502460B460024012108E00E4D35F80D
:100FF00011604D1E0C4F27F815604D1CE9B20A29EF
:10100000F4DBD5182DB2084E7582002105E0064D9F
:1010100035F911502C444D1CE9B20A29F7DB0A2599
:1010200094FBF5F528B2F0BD2805002000BFFEE7CF
:1010300008B501210C2000F095FB4FF44070ADF88D
:10104000000010208DF8030002208DF80200694690
:101050000548FFF757FD0C20ADF80000694603482E
:10106000FFF750FD08BD0000000C014000080140E2
:1010700000B589B00121042000F064FB01210820A3
:1010800000F070FBC020ADF8200018208DF8230080
:1010900002208DF8220008A92348FFF733FD4FF600
:1010A000FF70ADF818000E20ADF814000020ADF868
:1010B0001A00ADF8160005A91C4801F009F8302007
:1010C000ADF804000120ADF806000020ADF80A00DC
:1010D000ADF80C0001A9154800F040FF01A9134824
:1010E00000F092FF0021114800F084FF00210F481A
:1010F00000F0DCFF01210D4800F003FF0122062172
:101100000A4800F021FF1E208DF8000000208DF815
:1011100001008DF8020001208DF80300684600F000
:10112000ABF809B000BD0000000C01400008004011
:10113000704700001FB500F08FFC01210D2000F06A
:1011400011FB1020ADF80C008DF80F0003208DF876
:101150000E0003A93348FFF7D5FC0120ADF80C00C1
:1011600048208DF80F0003A92F48FFF7CBFC012082
:1011700001908DF80A0000208DF808000C208DF8F1
:10118000090001A8FFF754FC00210120FFF79AFC99
:1011900006208DF8000002208DF801008DF8020075
:1011A00001208DF80300684600F066F81D481430F1
:1011B000006840F010001B4914310860032123200F
:1011C00000F04EFD05221949302000F021FD0522D6
:1011D00017492A2000F01CFD1A21242000F040FDB0
:1011E0000121212000F03CFD0121222000F038FDEA
:1011F0000721262000F034FD1E21252000F030FDBF
:101200000C21312000F02CFD0F21202000F028FDC2
:1012100004481030006840F01000024910310860A6
:101220001FBD000000080140000C0140E00000204C
:10123000E500002010B50D48006840F010000B4993
:1012400008600C220A49612000F09EFC09480178E0
:10125000272000F005FD01F02BF80448001F00686E
:1012600040F010000149091F086010BD140801403A
:101270003C050020EA00002070B5002100230F2269
:10128000C47804B3154C246804F4E064C4F5E06445
:10129000210AC1F10403CA40447804FA03F18478B6
:1012A0001440214309010E4C0678A155047804F03E
:1012B0001F050124AC4005786D11AD0005F1E02556
:1012C000C5F8004109E0047804F01F050124AC4092
:1012D000044D0678761145F8264070BD0CED00E00F
:1012E00000E400E080E100E030B500240CE00025DF
:1012F00006E00020074901EBC5010855681CC5B28E
:10130000802DF6DB601CC4B2082CF0DB00F006F97F
:1013100030BD00002801002000B500218D2000F024
:10132000E3F90021142000F0DFF90021AF2000F0E4
:10133000DBF900BDF0B5144600267F2801DC3F290B
:1013400000DDF0BD0B46CF1701EB5777FF10C7F15B
:101350000707FAB2CF1701EB5777FF10A1EBC707CA
:10136000FDB2C5F107070123BB40DEB24CB10A4B09
:1013700003EBC0039B5C3343074F07EBC007BB5431
:1013800008E0054B03EBC0039B5CB343024F07EB44
:10139000C007BB5400BFD4E72801002010B558484F
:1013A000806940F00800564988615648006820F47A
:1013B0007F00544908600846006840F4081008603F
:1013C0004F48806940F010004D49886108468069A7
:1013D00040F0010088614C48406820F07F404A4955
:1013E00048600846406840F0085048604748006838
:1013F00040F48070454908604148006A20F00100CF
:101400003F4908624248008820F0010040490880B6
:101410003E48006820F480703C49086000203D4947
:101420000860642001F036FC01203B49C1F8BC0192
:101430000021AE2000F058F90021D52000F054F929
:101440000021502000F050F90021A82000F04CF9B4
:1014500000213F2000F048F90021D32000F044F99A
:101460000021084600F040F90021402000F03CF93E
:1014700000218D2000F038F90021142000F034F90B
:101480000021202000F030F90021022000F02CF98A
:101490000021A12000F028F90021C02000F024F94B
:1014A0000021DA2000F020F90021122000F01CF9C0
:1014B0000021812000F018F90021EF2000F014F93C
:1014C0000021D92000F010F90021F12000F00CF9E2
:1014D0000021DB2000F008F90021302000F004F9A1
:1014E0000021A42000F000F90021A62000F0FCF863
:1014F0000021AF2000F0F8F8FFF7F6FE10BD000065
:1015000000100240040C0140001001400070004037
:10151000306C0040BC0122420000224230B5002461
:101520001CE004F1B001C8B2002100F0DDF8002198
:10153000084600F0D9F80021102000F0D5F8002569
:1015400008E0084901EBC501085D012100F0CCF875
:10155000681CC5B2802DF4DB601CC4B2082CE0DB33
:1015600030BD0000280100202DE9F04F80460C46D8
:1015700015461E46A346A5F12000C5B200273EE051
:101580000C2E07D105EB45001F4901EB800010F838
:10159000079004E01D4800EB051010F807904FF08D
:1015A000000A26E009F0800028B121464046099A49
:1015B000FFF7C0FE09E0099808B9012000E000200B
:1015C000024621464046FFF7B5FE4FEA49604FEA22
:1015D0001069601CC4B2A4EB0B00B04205D15C469C
:1015E00008F1010000F0FF0806E00AF1010000F038
:1015F000FF0ABAF1080FD5DB00BF781CC7B2B742AB
:10160000BEDBBDE8F08F0000267400089A78000861
:101610002DE9FF4F81B0074691461E460E9D4FF0C3
:10162000000A002439E0301B401EC1B20A2003F03A
:1016300051FDB9FBF0F00A21B0FBF1F201FB1208F9
:10164000BAF1000F16D1701EA04213DDB8F1000FE1
:101650000ED10120AB4605EBDB71491001FB047193
:101660000090C8B22B4620220299FFF77DFF12E0BE
:101670004FF0010A0120AB4605EBDB71491001FB7D
:1016800004710090C8B208F13001CAB22B46029929
:10169000FFF76AFF00BF601CC4B2B442C3DB05B0F1
:1016A000BDE8F08F78B505460E46144618E07A2D51
:1016B00003DD002506F11000C6B23A2E04DD00203D
:1016C00005460646FFF710FE012000902278102301
:1016D00031462846FFF748FF05F10800C5B2641CF3
:1016E00020780028E3D178BD10B50A461AB101234D
:1016F000114C236002E000230F4C2360002114E012
:1017000000230E4C236000F080031BB10123241D35
:10171000236003E00023094C241D23600123074CB0
:1017200023604306180E4B1CD9B20829E8DB0123BD
:10173000014C236010BD0000B8012242B08121425B
:101740007047000029B1064AD2690243044BDA61AE
:1017500004E0034AD2698243014BDA61704700001A
:101760000010024029B1064A92690243044B9A6173
:1017700004E0034A92698243014B9A61704700007A
:101780000010024030B500210022002400232D4D1E
:101790006D6805F00C0121B1042905D0082923D179
:1017A00005E0294D056022E0274D05601FE0254D2D
:1017B0006D6805F47012234D6D6805F480340225C0
:1017C00005EB92421CB9214D554305600BE01D4DC0
:1017D0006D6805F400351DB11C4D5543056002E0F0
:1017E000194D5543056002E0174D056000BF00BF6D
:1017F000144D6D6805F0F0010909154D6B5C056825
:10180000DD4045600F4D6D6805F4E061090A104D3B
:101810006B5C4568DD4085600A4D6D6805F460517C
:10182000C90A0B4D6B5C4568DD40C560054D6D68B0
:1018300005F44041890B074D6B5CC568B5FBF3F5BA
:10184000056130BD0010024000127A0000093D0021
:10185000040100201401002010B50B48006840F07E
:101860001000094908600F21202000F0F9F97E21BD
:10187000272000F0F5F90448001F006840F0100030
:101880000149091F086010BD140801402DE9F04FFF
:101890008DB00AA860490BAB06AACDE900105F49DC
:1018A0005F4801F0C5FB5C48008800F480700028A8
:1018B0007ED0069804F048FD04464FF09D4104F0A8
:1018C00011FC58490860079804F03EFD04464FF0AB
:1018D0009D4104F007FC54490860089804F034FD69
:1018E00004464FF09D4104F0FDFB50490860099803
:1018F00004F02AFD04464FF09D4104F0F3FB4C49EF
:101900000860484801684FF0804004F07DFD049075
:1019100046480168049804F077FD82464248016811
:101920004FF0404004F070FD049041480168049875
:1019300004F06AFD8346514604F066FB059004F00E
:1019400037FB804600F024FE06464FF06632394BE6
:1019500004F054F8044603F017FE37490860334892
:1019600001684FF0804004F04FFD01902F4801685E
:10197000019804F049FD82462B4801684FF0404031
:1019800004F042FD019028480168019804F03CFDF4
:101990008346514604F036FE81464FF07E5104F0F6
:1019A00033FB044604F004FBCDE904011D4800E0CC
:1019B0002FE001684FF0804004F026FD83461A486E
:1019C0000168584604F020FD8146184801684FF030
:1019D000804004F019FD834615480168584604F01C
:1019E00013FD8246494604F00FFB044604F0E0FA7A
:1019F000CDE90201DDE9042301F012F807464FF0BA
:101A000066320C4B03F0FAFF054603F0BDFD0B49AF
:101A100008600DB0BDE8F08F600000205A00002083
:101A2000540000206C000020700000207400002092
:101A30007800002066A64C4064000020680000206A
:101A400021B1028842F04002028004E002884FF691
:101A5000BF731A400280704700B587B001210C2087
:101A6000FFF780FE03208DF80600E020ADF80400AB
:101A700018208DF8070001A91C48FFF743F8022041
:101A8000ADF8040010208DF8070003208DF8060043
:101A900001A91748FFF736F801210803FFF762FE96
:101AA0000020ADF808004FF48270ADF80A00002065
:101AB000ADF80C00ADF80E00ADF810004FF400705A
:101AC000ADF812000820ADF814000020ADF81600A3
:101AD0000720ADF8180002A9064800F01BF8012104
:101AE0000448FFF7ADFF07B000BD0000000801404B
:101AF000000C0140003001400246002013890B40D9
:101B00000BB1012000E00020704701468889704732
:101B10008181704710B50022028802F441520B887F
:101B20004C8823438C882343CC8823430C8923434C
:101B30004C8923438C892343CC8923431A43028055
:101B4000838B4FF2FF74234083830B8A038210BD83
:101B500010B5044600BF02210A48FFF7CDFF002858
:101B6000F9D021460748FFF7D3FF00BF0121054800
:101B7000FFF7C2FF0028F9D00248FFF7C6FFC0B246
:101B800010BD00000030014070B506460C461546F9
:101B90000F48006840F002000D4908603046FFF72A
:101BA000D7FF0C49087006E00020FFF7D1FF207036
:101BB000641C681EC5B2002DF6D10548001F0068E0
:101BC00040F002000249091F08600248007870BD19
:101BD000140C0140FA00002070B504460B48006860
:101BE00040F00200094908602046FFF7B1FF0020DD
:101BF000FFF7AEFF05460548001F006840F00200F1
:101C00000249091F0860284670BD0000140C0140FD
:101C100070B506460C4615460F48006840F00200B5
:101C20000D4908603046FFF793FF0C49087005E046
:101C30002078FFF78DFF641C681EC5B2002DF7D118
:101C40000548001F006840F002000349091F0860B2
:101C50000248007870BD0000140C0140FA0000201A
:101C600070B505460C460C48006840F002000A4971
:101C700008602846FFF76CFF084908702046FFF708
:101C800067FF0548001F006840F002000249091F75
:101C900008600248007870BD140C0140FA00002072
:101CA000704710B500F002F810BD00000CB5002020
:101CB000019000903348006840F48030314908605A
:101CC00000BF3048006800F4003000900198401CCC
:101CD0000190009818B90198B0F5A06FF1D129488A
:101CE000006800F4003010B10120009001E00020F5
:101CF00000900098012843D12348006840F010006C
:101D0000214908600846006820F003000860084682
:101D1000006840F0020008601A48406819494860AD
:101D20000846406848600846406840F48060486063
:101D30000846406820F47C1048600846406840F43B
:101D4000E81048600846006840F08070086000BFF6
:101D50000C48006800F000700028F9D0094840687D
:101D600020F00300074948600846406840F0020040
:101D7000486000BF0348406800F00C000828F9D113
:101D80000CBD0000001002400020024030B50546A6
:101D90000C46002D03DD00200D49086002E0012003
:101DA0000B490860002C04DD01200949091F086067
:101DB00003E000200649091F08602846FFF7E8F8FD
:101DC000044908602046FFF7E3F80349086030BD86
:101DD0008C0121420C00002010000020042808D1B2
:101DE0004FF0E021096941F004014FF0E022116158
:101DF00007E04FF0E021096921F004014FF0E022F3
:101E0000116170477047000010B51348006840F03A
:101E100001001149086008464068104908400E4911
:101E20004860084600680E4908400B4908600846AB
:101E3000006820F4802008600846406820F4FE0016
:101E400048604FF41F008860FFF72BFF4FF00060E1
:101E50000449086010BD0000001002400000FFF8B7
:101E6000FFFFF6FE08ED00E02DE9F04102212048D9
:101E700000F059F8D0B102211D4800F03FF81C488D
:101E800000F04BF8064604F077FA0446194800685B
:101E900004F05AFA8046214604F0B6F8074604F0EA
:101EA00033FA86B23146124800F00DF90421104889
:101EB00000F039F8D0B104210D4800F01FF80C48AB
:101EC00000F02EF8064604F057FA05460A48006866
:101ED00004F03AFA8046294604F096F8074604F0E2
:101EE00013FA86B23146024800F0EFF8BDE8F081FF
:101EF000000800400C00002010000020CA430282AD
:101F0000704721B1028842F00102028004E0028899
:101F10004FF6FE731A40028070470146888E704764
:101F20000146088F704730B5024600200023002488
:101F3000158A05EA0103958905EA010413B10CB17C
:101F4000012000E0002030BD1AB183890B4383815A
:101F500002E083898B4383817047000070B50024C1
:101F600000220023058C4FF6FE7635400584028C56
:101F70008388048B4FF68F752C40B51E2C400D883E
:101F80002C43751E2A400D892A434D882A43144D3F
:101F9000A8420BD0134DA84208D0134DA84205D03B
:101FA000124DA84202D0124DA84213D14FF6F77538
:101FB0002A404D892A434FF6FB752A408D882A43D3
:101FC0004FF6FF652B404FF6FF552B408D892B4375
:101FD000CD892B4383800483CD888586028470BDA0
:101FE000002C014000340140004001400044014009
:101FF000004801400A460021018B4FF6F773194053
:10200000114301837047000070B5002400220023B3
:10201000058C4FF6EF7635400584028C8388048B5F
:1020200048F6FF752C404FF6FF452C400D884FF6C3
:10203000FF7606EA05252C434FF6DF752A400D8909
:1020400006EA05152A434D8806EA05152A43154D6B
:10205000A84202D0144DA8421DD14FF67F752A40E8
:102060004D894FF6FF7606EA05152A434FF6BF75F0
:102070002A408D8806EA05152A434FF6FF352B4086
:102080004FF2FF752B408D8906EA85052B43CD89DC
:1020900006EA85052B4383800483CD880587028467
:1020A00070BD0000002C0140003401400A460021B0
:1020B000018B4FF2FF7319404FF6FF7303EA0223BF
:1020C000194301837047818670470187704700007C
:1020D000002202881D4B98420ED01D4B98420BD017
:1020E000B0F1804F08D01B4B984205D01A4B984254
:1020F00002D01A4B984204D14FF68F731A404B8886
:102100001A43174B984207D0164B984204D04FF60B
:10211000FF431A40CB881A4302808B8883850B8843
:1021200003850A4B98420BD0094B984208D00E4BBE
:10213000984205D00D4B984202D00D4B984201D1E8
:102140000B7A03860123838270470000002C014034
:10215000003401400004004000080040000C004032
:1021600000100040001400400040014000440140C5
:102170000048014021B1828942F40052828104E08A
:1021800082894DF6FF731A4082817047F0B503468D
:10219000002400260025002040F66A17B94200D12D
:1021A00000BF1846C1F3421401F01F06012707FAC9
:1021B00006F5012C01D10C3004E0022C01D11030C5
:1021C00000E014301AB107682F43076002E0076887
:1021D000AF430760F0BD00002DE9F04786B005462B
:1021E0000E460024A24600BFA1460027B08900B1D8
:1021F00000BF2F462C8A4CF6FF700440F088044341
:102200002C82AC894EF6F3100440B0883189084323
:10221000718908430443AC81AC8A4FF6FF40044007
:10222000B0890443AC8201A8FFF7ACFA1F4887428B
:1022300002D1DDF810A001E0DDF80CA0A88900F4BF
:10224000004040B10AEBCA0000EB0A1031684900B7
:10225000B0FBF1F807E00AEBCA0000EB0A103168A6
:102260008900B0FBF1F86420B8FBF0F0040120090C
:10227000642101FB1089A88900F4004040B132209C
:1022800000EBC900B0FBF1F000F00700044308E0E8
:10229000322000EB09106421B0FBF1F000F00F00D8
:1022A00004432C8106B0BDE8F087000000380140EF
:1022B0003448C07AA52800D070473248007800F032
:1022C000010000284ED02F4800792E49497940EA74
:1022D00001202D4948802B4880792A49C97940EA54
:1022E0000120294988802748007A2649497A40EA0E
:1022F00001202549C88008468088192806DD00206D
:10230000224908700120224908700FE01E48808889
:10231000052806DA01201D49087000201C490870B4
:1023200004E0002019490870194908701648C0884F
:10233000192806DD01201749087000201649087089
:1023400019E01148C088052806DA002011490870F4
:102350000120114908700EE000200E4908700E4956
:10236000087008E00748007800F0080018B1054838
:1023700040780A4908700348807A0949087000BF0C
:102380009AE700003C050020EE000020F800002045
:10239000F9000020F6000020F7000020EC000020EB
:1023A000EB00002000BFFEE741F2883041420C4ABA
:1023B00012688A4201DA0A4A1160094A12688242A6
:1023C00001DD074A1060074A12688A4201DA054AAD
:1023D0001160044A1268824201DD024A10607047AF
:1023E0000000002004000020490050EAC12018BF6E
:1023F00004204A0D18BF40F0010040F2FF72B2EB1A
:10240000515F08BF40F00200012808BF0520704757
:102410002DE9F0414F1E00EBC7010446D1E9000150
:1024200015461E4637F006020DD02A46334603F005
:10243000E5FA7F1E04EBC703D3E9002303F0D6F8C7
:1024400037F00602F1D1022F25D0042F13D0062F2A
:1024500018BFBDE8F0812A46334603F0CFFAD4E92D
:102460000A2303F0C3F82A46334603F0C7FAD4E937
:10247000082303F0BBF82A46334603F0BFFAD4E939
:10248000062303F0B3F82A46334603F0B7FAD4E93B
:10249000042303F0ABF82A46334603F0AFFAD4E93D
:1024A000022303F0A3F82A46334603F0A7FAD4E93F
:1024B0000023BDE8F04103F099B8012204F049B9C6
:1024C00003F094B8002213461046114603F03EB9BB
:1024D000024A0020110704F03CB9000001FDFFFF93
:1024E000014600BF704700002DE9FE4F06460F462B
:1024F0000025684601F002FA002442E056F8240064
:1025000057F82410A0EB010ABAF1000F01DB514685
:1025100001E0CAF10001084603F016FF83464FF0C0
:102520008F4103F0DFFD80465DF82400002103F0B9
:102530009BFE16D05DF82410404603F0D3FD824682
:102540004FF07E5104F05EF8814629F0004A0F48B2
:10255000416A504604F024F812D20120A0400543FD
:102560000EE00A48C169404603F01AFF05D3074848
:10257000016A404604F014F802D20120A04005434D
:10258000641C032CBADB2846BDE8FE8F08680008EF
:102590002DE9F04D8D4F21F0004A86B005460C46DE
:1025A000BA452ADBAAEB070028430AD088488245AF
:1025B00001DC1AD1CDB106B02846BDE8F04DFFF7D9
:1025C0007CBF844A844B284603F018FA07460E461F
:1025D000824A834B2846214603F010FA06B03A4659
:1025E0003346BDE8F04D03F001B80120FDF746FF8A
:1025F00006B0BDE8F04DFFF765BF7A48824542DA84
:10260000BAF1795F0BDA2846FFF7EEFE042808BF1F
:10261000FFF75EFF284606B02146BDE8F08D2A464A
:102620000B46104603F0EAF9834602466E480E4612
:102630000B4606217844FFF7EBFE5A46334603F07B
:10264000DDF9804669488A465A4633460421784473
:10265000FFF7DEFE5A46334603F0D0F900223B4630
:1026600002F0C4FF02460B464046514603F06EF8A6
:102670002A46234603F0C2F906B02A462346BDE89F
:10268000F04D02F0B3BF284624F0004100223D4641
:102690003B4603F0B1FA4FF0FF3204F05AF8064619
:1026A000024653480F460B4606217844FFF7B0FE1A
:1026B00032463B4603F0A2F9CDE900014D483246CF
:1026C0003B4604217844FFF7A3FE32463B4603F025
:1026D00095F900222B4602F089FF8346029130468D
:1026E000394602F0A9FD804643480D46504517DCA7
:1026F000DDE900015A46029B03F028F842462B46CA
:1027000003F07CF942462B4602F070FF012204F0F0
:1027100020F8304A304B03F061FB304A304B4CE03C
:102720004FF0000A52460B46404602F05FFFCDE9EB
:10273000031052462B461046194603F05FF9324605
:102740003B4603F059FADDE9033202F0FFFF06468B
:102750000F46DDE900015A46029B02F0F7FF83466F
:10276000009101223046394603F0F3FF194A1A4B13
:1027700003F042FA06460F4601224046294603F07E
:10278000E8FF5A46009B03F039F932463B4603F016
:1027900025FB06460F4601225046294603F0D9FF85
:1027A0000E4DDFF858802A46434603F025FA32469C
:1027B0003B4603F021FA2A46434603F01DFA002C5B
:1027C000D8BF81F0004106B0BDE8F08D0000F03FB9
:1027D0000000F07F075C143326A6913C182D44546A
:1027E000FB21F93F0000E03F585800006E58000000
:1027F000E2570000F85700003333EF3FFB21E93F79
:102800002DE9F84F04460D4621F000400091734930
:10281000814211DC7249884201DC06D12CB120468C
:102820002946BDE8F84FFFF748BE6E48002DCCBFE3
:102830006D496E49BDE8F88F6D49814211DD6D49E2
:102840008142D8BF4FF0FF366DDD20462946FFF7A5
:10285000CBFD042808BFFFF73BFE20462946BDE814
:10286000F88F6549654F25F00045814233DD6449A5
:10287000814219DD002632464FF08043204629462A
:1028800002F0B4FE80468A4601222046294603F023
:1028900060FF00223B4603F0A1FA4246534602F095
:1028A00055FF04460D463EE001260022BA463B464F
:1028B0002046294602F09AFE80460F4600225346E3
:1028C0002046294603F08AFA42463B4602F03EFF84
:1028D00004460D4627E04B4981421BDDDFF828A165
:1028E0000226002253462046294603F087F800229C
:1028F0003B4602F07BFE80460F46002253462046B0
:10290000294603F06BFA42463B4602F01FFF04469D
:102910000D4608E0032622462B4600203B4902F0E4
:1029200015FF04460D4622462B461046194603F075
:1029300065F88B46824602460B4603F05FF8074671
:102940000246334888460B4606217844FFF760FD6F
:1029500052465B4603F052F882462E488B463A4672
:10296000434605217844FFF753FD3A46434603F0BA
:1029700045F802460B46002E504659460CDA02F046
:1029800035FE22462B4603F039F801B022462B468D
:10299000BDE8F04F03F030B902F028FE22462B4686
:1029A00003F02CF81C4A7A4402EBC603D3E9002357
:1029B00003F014FA22462B4603F010FA174A7A4421
:1029C00002EBC603D3E9002303F016F9009A002AAC
:1029D000B8BF81F00041BDE8F88F0000000010444E
:1029E0000000F07F182D4454FB21F93FFB21F9BF73
:1029F0000000DC3F0000203E0000F33F0000F03FFD
:102A00000000E63F008003400000F83F0000F0BFF8
:102A1000FA550000B8550000565500001E5500003C
:102A20002DE9F04D9446CCF1000423F000464CEA29
:102A30000404524F46EAD4749A46884621F0004274
:102A4000BC4206D8454240EA050442EAD474BC427E
:102A500004D9BDE8F04D6246FFF732BDAAF14055FA
:102A6000A5F17F6555EA0C040BD0022404EAAA7490
:102A7000434DDFF810E144EAD87452EA000B04D069
:102A80000CE0BDE8F04DFFF7BBBE002C14BF012CDD
:102A9000BDE8F08D022C30D0032C32D056EA0C0B5E
:102AA0000AD0BE4220D1BA4209D126F0804622F097
:102AB00080423346114617E000291ADB25E0DFF893
:102AC000C8B0FB44002C04BFDBE90001BDE8F08D79
:102AD000012C02BFDBE9000181F00041BDE8F08D6F
:102AE000022C0AD0032C0CD0BA4212D1B8F1000F3C
:102AF0000BDA23482549BDE8F08D28462449BDE876
:102B0000F08D28467146BDE8F08D1D482149BDE88D
:102B1000F08D921B12153C2AC4BF19481D490EDCCA
:102B2000BAF1000FBEBF12F13C0F0020014606DBD8
:102B3000624602F00BFE21F00041FFF761FE002C1F
:102B400008BFBDE8F08D012C04BF81F00041BDE855
:102B5000F08D114A114B022C07D003F03FF92A46A1
:102B6000BDE8F04D0A4B03F039B903F037F92A46B6
:102B7000BDE8F04D064B03F03FB800000000F07FC9
:102B8000182D4454FB2109C0B2540000FB21F9BFA9
:102B9000FB210940FB21F93F075C143326A6A13C29
:102BA0002DE9F04704460D460D49204603F02AFD65
:102BB000804629460B48006803F026FC81464146C2
:102BC0000948006803F020FC8246494603F01CFADD
:102BD000074603F07DFB06463046BDE8F08700005F
:102BE000000080BF900000208C0000202DE9F04103
:102BF0000446E07800F0C006E07800F03F05607819
:102C000000F0010098B1EF102846E91705EB51716B
:102C1000C910A5EBC101491C01F0FF080B48006871
:102C200020B10A48414602683846904700BF6078A4
:102C300000F0080030B10548406818B1B011034AEF
:102C4000516888470020BDE8F0810000180100208D
:102C500010B56FF00400FFF7C1F80A4800680A4990
:102C6000B0FBF1F0094908700846007800EB40011C
:102C7000C1EBC0104FF6FF7101EAC00004490880A3
:102C800010BD00001400002000127A00FC0000209B
:102C9000FE0000200146114A12884A434FF0E0230B
:102CA0005A6100229A611A46126942F001021A61C1
:102CB00000BF4FF0E022106900F001021AB100F4E9
:102CC0008032002AF5D04FF0E022126922F0010292
:102CD0004FF0E0231A6100229A617047FE00002045
:102CE0000146114A12784A434FF0E0235A6100220C
:102CF0009A611A46126942F001021A6100BF4FF050
:102D0000E022106900F001021AB100F48032002ABA
:102D1000F5D04FF0E022126922F001024FF0E023DB
:102D20001A6100229A617047FC00002038B5044601
:102D300064B120208DF8000028208DF8010030209B
:102D40008DF8020038208DF8030004E0A32204214E
:102D50006846FDF70BFB6A46042140F69E2002F010
:102D60002DF901F01DFD38BD3EB5044602208DF859
:102D70000000CA208DF80100E3208DF80200092030
:102D80008DF803006A460421682002F017F9A32099
:102D90008DF8000004F0400048B1C0208DF801001B
:102DA000C8208DF80200C2208DF8030006E0A320A1
:102DB0008DF801008DF802008DF8030004F4C07056
:102DC00048B1C4208DF80400CC208DF80500C62041
:102DD0008DF8060006E0A3208DF804008DF80500AC
:102DE0008DF80600A3208DF807008DF808008DF8F7
:102DF00009006A460A2140F6A72002F0DFF804F035
:102E0000030018B120208DF8000002E0D8208DF8D2
:102E100000006A46012140F6B62002F0CFF804F027
:102E2000200018B1012000F0ADF802E0002000F011
:102E3000A9F804F4C07008B304F4807060B1B22043
:102E40008DF800008B208DF80100B6208DF802006F
:102E50009B208DF803000BE0B0208DF8000080204F
:102E60008DF80100B4208DF8020090208DF8030049
:102E70006A46042140F6A22002F0A0F804F0010006
:102E800020B3F8208DF800006A4601214FF40B6052
:102E900002F094F8FA21072000F02CFC072000F043
:102EA000F3FB012000F013FC642000F0F3FC4FF46E
:102EB000FA7000F002FDC821304800F0A3FB282082
:102EC00000F0BCFB0A2000F0CCFB08E0D8208DF815
:102ED00000006A4601214FF40B6002F06FF804F025
:102EE000020018B1D9208DF8000002E0D8208DF83A
:102EF00000006A46012140F23D7002F05FF804F0E4
:102F0000040018B1012000F069F802E0002000F090
:102F100065F804F0100018B10120FFF707FF02E088
:102F20000020FFF703FF44F008001549488101F035
:102F300037FC00201249887304F0400018B108469D
:102F4000807B801D887304F4C07020B10C48807BA6
:102F5000801D0B49887304F0140020B10848807B61
:102F600010300749887304F0030020B10448807BC7
:102F7000001D0349887300203EBD000009E3CA021A
:102F8000180100203EB504466CB10EA1D1E9002025
:102F90008968CDE9002002916A4609214FF49760C3
:102FA00002F00CF83EBD0AA2D2E900109268CDE909
:102FB000010200916A4609214FF4976001F0FEFF7B
:102FC000F0E70000B8AAB38DB4980D355D0000009D
:102FD000B8AAAAAAB088C3C5C700000038B504467D
:102FE00064B1C0208DF80000C2208DF80100C4201B
:102FF0008DF80200C6208DF8030004E08B22042126
:103000006846FDF7B3F96A46042140F6982001F0BE
:10301000D5FF01F0C5FB38BD10B5C8234FF4806261
:10302000024940F6F63001F04FFA10BD3068000852
:103030002DE9F04F8DB00746884615469946DDE9E3
:10304000166B0024002030806B49887B5A4605A906
:1030500001F006FB18B1601E0DB0BDE8F08F6648A8
:10306000807A00F01400002867D09DF81400000654
:103070009DF8151040EA01409DF8161040EA012025
:103080009DF81710084328609DF8180000069DF869
:10309000191040EA01409DF81A1040EA01209DF8FD
:1030A0001B10084368609DF81C0000069DF81D1069
:1030B00040EA01409DF81E1040EA01209DF81F10D3
:1030C0000843A8609DF8200000069DF8211040EA02
:1030D00001409DF8221040EA01209DF8231008438A
:1030E000E86004F11000C4B2286800140190686818
:1030F00000140290A86800140390E868001404907B
:1031000001984043029901FB0100039901FB010072
:10311000049901FB010ABAF1706F02DBBAF1885F12
:1031200005DD01F03DFB00203080401E94E7B6F93C
:10313000000040F48070308000BF2F48807A00F09B
:10314000400020B305A9601C085C095D40EA01202D
:1031500000B2A8F8000005A9E01C095C05AAA01CA3
:10316000105C41EA002000B2A8F8020005A9601D29
:10317000095C201D105C41EA002000B2A8F80400A0
:10318000A01DC4B2B6F9000040F0080030801A4813
:10319000408900F4C07008B305A9601C085C095D93
:1031A00040EA012000B2388005A9E01C095C05AAAC
:1031B000A01C105C41EA002000B2788005A9601DC7
:1031C000095C201D105C41EA002000B2B880A01DFF
:1031D000C4B2B6F9000040F0700030800648807A32
:1031E00000F0030018B105A90819FFF7FFFC4846D5
:1031F00001F02BFF00202FE71801002070B588B0E8
:10320000064601A800F0B4FFBDF804000021C90380
:1032100041EA5045C4034448007A00F0030056F8E0
:10322000200005904048007A00F0040010B1059895
:10323000404205903C48007AC0F3C10056F8200097
:1032400006903948007A00F0200010B106984042FC
:1032500006903548007AC0F3811056F82000079098
:103260003148008900F4807010B1079840420790FF
:103270000598C117A0FB042301FB043100FB0510D6
:10328000810041EA927005900698C117A0FB0423C3
:1032900001FB043100FB0510810041EA92700690A9
:1032A0000798C117A0FB042301FB043100FB0510A4
:1032B000810041EA927007900598000E8DF8080091
:1032C0000598000C8DF809000598000A8DF80A0091
:1032D0000598C0B28DF80B000698000E8DF80C0012
:1032E0000698000C8DF80D000698000A8DF80E0067
:1032F0000698C0B28DF80F000798000E8DF81000E8
:103300000798000C8DF811000798000A8DF812003C
:103310000798C0B28DF8130002AA0C214FF4257053
:1033200001F04CFE08B070BD1801002030B585B02A
:10333000044616A207CA02AB07C3C82C03DD4FF030
:10334000FF3005B030BDC82090FBF4F0401E85B2C0
:10335000280A8DF80000E8B28DF801006A460221C3
:1033600040F2162001F02AFE10B14FF0FF30E8E7DE
:1033700002AA0C2140F6C12001F020FE10B14FF04E
:10338000FF30DEE7044884810020DAE7FEF2ABC4B8
:10339000AAF1DFDFBBAFDFDF180100201FB5044655
:1033A0004848007A00F0030054F820000190454896
:1033B000007A00F0040010B10198404201904148A9
:1033C000007AC0F3C10054F8200002903D48007A12
:1033D00000F0200010B10298404202903948007A73
:1033E000C0F3811054F8200003903648008900F49F
:1033F000807010B10398404203903349019880FBDC
:103400000101800F40EA810001902F49029880FB62
:103410000110820042EA917002902B49039880FBD0
:103420000110820042EA917003900198000E8DF81D
:1034300000000198000C8DF801000198000A8DF839
:1034400002000198C0B28DF803006A4604214FF4CF
:10345000747001F0B3FD18B14FF0FF3004B010BD2F
:103460000298000E8DF800000298000C8DF8010003
:103470000298000A8DF802000298C0B28DF803008D
:103480006A4604214FF4757001F098FD10B14FF0B9
:10349000FF30E3E70398000E8DF800000398000C5E
:1034A0008DF801000398000A8DF802000398C0B25D
:1034B0008DF803006A4604214FF4767001F07EFD1A
:1034C000CCE700001801002009E3CA0210B586B05D
:1034D000044647A00068039046A00068029046A0FA
:1034E0000068019045A00068009004F0030003A963
:1034F000085C8DF8140003A8C4F3C101405C8DF88A
:10350000150003A8C4F38111405C8DF8160004F087
:10351000030002A9085C8DF8100002A8C4F3C101E1
:10352000405C8DF8110002A8C4F38111405C8DF855
:10353000120005AA032140F2264001F03FFD18B118
:103540004FF0FF3006B010BD04AA032140F22A401C
:1035500001F034FD10B14FF0FF30F3E70198059012
:103560000098049004F0040058B19DF8140040F055
:1035700001008DF814009DF8100040F001008DF856
:10358000100004F0200058B19DF8150040F0010033
:103590008DF815009DF8110040F001008DF8110024
:1035A00004F4807058B19DF8160040F001008DF8C9
:1035B00016009DF8120040F001008DF8120005AAD7
:1035C00003214FF4886001F0F9FC10B14FF0FF3097
:1035D000B8E704AA032140F2314001F0EFFC10B13A
:1035E0004FF0FF30AEE7064804810020AAE7000054
:1035F0004CCD6C000CC92C00365676002646660071
:1036000018010020F8B505460E464FF47A7095FB78
:10361000F0F000FB06F4200E8DF80000200C8DF871
:103620000100200A8DF80200E0B28DF803006A461E
:1036300004214FF4AE7001F0C1FCF8BD38B504466A
:10364000052094FBF0F084B220128DF80000E0B267
:103650008DF801006A4602214FF4AD7001F0AEFC16
:1036600038BD38B50446052094FBF0F084B2201232
:103670008DF80000E0B28DF801006A4602214FF497
:10368000AC7001F09BFC38BD38B5044600200090BA
:1036900004F0010020B19DF8000040F030000090DF
:1036A00004F0020020B19DF8000040F00C000090F2
:1036B00004F0040020B19DF8000040F003000090E9
:1036C0006A4601214FF4A47001F078FC38BD38B58A
:1036D0000446012C01DA012402E0042C00DD04245C
:1036E000601EC0B200906A46012140F24F1001F006
:1036F00065FC38BD2DE9FC4706460F4606F007007D
:1037000010B1B7F5C86F03DD4FF0FF30BDE8FC879F
:10371000384602F031FE8146594902F0E3FC80460A
:10372000684600F0FFFC9DF80000022806D004283F
:1037300016D0082826D0102848D135E04FF08D410A
:10374000404602F061FE814602F0DEFD84B24D4942
:10375000404602F059FE814602F0D6FD85B238E0BF
:103760004FF08C41404602F04FFE814602F0CCFD06
:1037700084B24549404602F047FE814602F0C4FD4E
:1037800085B226E04FF08B41404602F03DFE814677
:1037900002F0BAFD84B23D49404602F035FE814652
:1037A00002F0B2FD85B214E04FF08A41404602F0CB
:1037B0002BFE814602F0A8FD84B23549404602F056
:1037C00023FE814602F0A0FD85B202E04FF0FF30FB
:1037D0009CE700BF20128DF80400E0B28DF80500D0
:1037E00028128DF80600E8B28DF8070006F00100F7
:1037F000A0B101AA02214FF4EA7001F0DFFB10B181
:103800004FF0FF3082E70DF1060202214FF4927073
:1038100001F0D4FB10B14FF0FF3077E706F0020063
:10382000A0B101AA02214FF4EC7001F0C7FB10B166
:103830004FF0FF306AE70DF1060202214FF4947059
:1038400001F0BCFB10B14FF0FF305FE706F0040061
:10385000A0B101AA02214FF4EE7001F0AFFB10B14C
:103860004FF0FF3052E70DF1060202214FF496703F
:1038700001F0A4FB10B14FF0FF3047E7002045E70F
:1038800000004843000040460000C045000040459D
:103890000000C04438B50446052094FBF0F085B222
:1038A00028128DF80000E8B28DF801006A46022166
:1038B0004FF4EF7001F082FB38BD38B504460520A7
:1038C00094FBF0F085B228128DF80000E8B28DF874
:1038D00001006A4602214FF4ED7001F06FFB38BD24
:1038E00000BF054A128802F04002002AF9D0C2B295
:1038F000014B1B1D1A807047003801407CB50546FE
:1039000028494968087801AB04220D2100F010FB1A
:1039100008B107207CBD9DF80700C0F301109DF899
:10392000041001F0E00140EAE1008DF800009DF88C
:103930000700C0F381009DF8051001F0E00140EAA6
:10394000E1008DF801009DF8070000F003009DF8EC
:10395000061001F0E00140EAE1008DF802000024C9
:103960001CE01DF8040018B9002045F8240013E0FD
:103970000D4845F8240006E055F824000B4902F0F4
:1039800043FD45F824001DF80400401EC0B20DF8A8
:1039900004000028F0D100BF601CC4B2032CE0DB9F
:1039A0000020B7E7280000207B14AE3E1D5A843F5C
:1039B0002DE9F04F87B005460C46914601208DF861
:1039C000100000208DF81100FE4A1268917CFD4A1B
:1039D0005268107804AB022200F0E5FA20B14FF0F3
:1039E000FF3007B0BDE8F08FC820FFF753F9002083
:1039F0008DF81000F34A1268D17BF24A52681078B1
:103A000004AB012200F0CFFA10B14FF0FF30E8E72D
:103A1000EC4A12685179EB4A5268107804AB0122E3
:103A200000F0C1FA10B14FF0FF30DAE7E54A126852
:103A3000917CE44A5268107804AB012200F0B3FA9A
:103A400010B14FF0FF30CCE7DE4A1268D17DDD4A7D
:103A50005268107804AB012200F0A5FA10B14FF0C3
:103A6000FF30BEE7D74A12681179D64A52681078FB
:103A700004AB012200F097FA10B14FF0FF30B0E72D
:103A80000C208DF81000CF4A12681179CD4A526887
:103A9000107804AB012200F086FA10B14FF0FF302D
:103AA0009FE70F20FFF7F6F8C648806A407A8DF846
:103AB0001000C44A12689178C24A5268107804AB68
:103AC000012200F070FA10B14FF0FF3089E7BD48D5
:103AD000806A007A8DF81000BA4A12685178B94AA3
:103AE0005268107804AB012200F05DFA10B14FF07B
:103AF000FF3076E7B9F1000F07D0B248806A807ACC
:103B000040F0E0008DF8100004E0AE48806A807A52
:103B10008DF81000AB4A12689179AA4A5268107861
:103B200004AB012200F03FFA10B14FF0FF3058E72C
:103B3000B9F1000F07D0A348806AC07A40F0E000D6
:103B40008DF8100003E0A048C07A8DF810009D4A5F
:103B50001268D1799B4A5268107804AB012200F0B8
:103B600022FA10B14FF0FF303BE7B9F1000F02D05D
:103B7000C820FFF78FF840208DF81000914A126896
:103B80001179904A5268107804AB012200F00BFAC8
:103B900010B14FF0FF3024E778208DF81000894AEB
:103BA00012685179874A5268107804AB012200F0FC
:103BB000FAF910B14FF0FF3013E783498889FFF716
:103BC00069F800208DF810007E4A126851797D4A0C
:103BD0005268107804AB012200F0E5F910B14FF003
:103BE000FF30FEE6774A1268917A764A526810787A
:103BF00004AB022200F09CF910B14FF0FF30F0E668
:103C00009DF811009DF8101040EA012B0C209BFB41
:103C1000F0F0C6B20020A86068602860A060606014
:103C20002060824665E0674A1268D17A654A526828
:103C3000107804AB0C2200F07BF910B14FF0FF308C
:103C4000CFE69DF811009DF8101040EA012000B267
:103C5000ADF808009DF813009DF8121040EA01200D
:103C600000B2ADF80A009DF815009DF8141040EA66
:103C7000012000B2ADF80C00BDF90810206808441E
:103C80002060BDF90A10606808446060BDF90C103E
:103C9000A0680844A0609DF817009DF8161040EA3F
:103CA000012000B2ADF800009DF819009DF8181031
:103CB00040EA012000B2ADF802009DF81B009DF81B
:103CC0001A1040EA012000B2ADF80400BDF900105E
:103CD000286808442860BDF90210686808446860D4
:103CE000BDF90410A8680844A8600AF1010000F0BA
:103CF000FF0AB24597DB3448D0F800C02868C117E6
:103D0000090441EA10410704624600233846FCF7E3
:103D100060FA32460023CDE90201FCF75AFA286026
:103D20002948D0F800C06868C117090441EA104169
:103D30000704624600233846FCF74BFA324600235C
:103D4000CDE90201FCF745FA68601F48D0F800C0D1
:103D5000A868C117090441EA10410704624600231C
:103D60003846FCF736FA32460023CDE90201FCF76B
:103D700030FAA8601448D0F804C02168C8170004BD
:103D800040EA11480F046246002338464146FCF7DA
:103D900020FA32460023CDE90201FCF71AFA20602E
:103DA0000948D0F804C06068C117090441EA10410D
:103DB0000704624600233846FCF70BFA324600231C
:103DC00004E000002800002008680008CDE9020196
:103DD000FCF7FFF960601148D0F804C0A068C11773
:103DE000090441EA10410704624600233846FCF703
:103DF000F0F932460023CDE90201FCF7EAF9A060B0
:103E0000A068002804DDA068A0F58030A06003E071
:103E1000A06800F58030A0600020E2E50868000896
:103E20002DE9FC5F06460F4600253D4949680878A4
:103E300001AB03220D2100F07BF810B10720BDE893
:103E4000FC9F9DF8040000F01F008DF804009DF811
:103E5000050000F01F008DF805009DF8060000F039
:103E60001F008DF80600002456E056F8240057F88D
:103E70002410A0EB010BBBF1000F01DB594601E060
:103E8000CBF10001084602F05FFA4FF08F4100903D
:103E900002F028F9814601A8005D68B3214908684D
:103EA00002F06AFA834659461F4802F01BF9804621
:103EB00004E01E49404602F0A7FA804601A8005DD2
:103EC000401EC0B201A908550028F2D1414648461B
:103ED00002F008F983464FF07E5102F093FB8246D0
:103EE0002AF0004B0F488169584602F059FB12D264
:103EF0000120A04005430EE00A480169484602F04F
:103F00004FFA05D307484169484602F049FB02D2FF
:103F10000120A0400543641C032CA6DB28468EE745
:103F2000280000200868000800B04C4554E3853F95
:103F30002DE9F04106460F4614461D46FCF79CFF4E
:103F400010B90120BDE8F0817106080EFCF762FF90
:103F5000FCF7EAFF18B9FCF7C3FF0120F2E7384687
:103F6000FCF758FFFCF7E0FFFCF786FF012101EBAF
:103F70004601C8B2FCF74EFFFCF7D6FF0DE0012C5E
:103F800004D10020FCF70EFF287003E00120FCF7AD
:103F900009FF28706D1C601EC4B2002CEFD1FCF725
:103FA0009FFF0020CEE72DE9F04105460E4617465B
:103FB0009846FCF761FF10B90120BDE8F081690661
:103FC000080EFCF727FFFCF7AFFF18B9FCF788FFD6
:103FD0000120F2E73046FCF71DFFFCF7A5FF0024A7
:103FE0000BE018F80400FCF715FFFCF79DFF18B96B
:103FF000FCF776FF0020E0E7641CBC42F1DBFCF735
:104000006FFF0020D9E770B50546284600F00FF88D
:104010000446E81C00F00BF844EAC00084B2A81D76
:1040200000F005F844EA801084B2204670BD0146D5
:1040300091F90020002A01DD00201EE091F9002006
:10404000002A01DA042018E091F90120002A01DD9C
:10405000012012E091F90120002A01DA05200CE08C
:1040600091F90220002A01DD022006E091F90220E8
:10407000002A01DA062000E0072070470220FCF742
:104080009BFFFEF7E5FD4FF4E13001F08FF9FDF7FE
:1040900085F9FCF787FCFDF74DF8FCF747FEFCF7C8
:1040A000FDFAFCF7C5FFFCF7E3FF01E000F0CEFFEF
:1040B000FCE7000070B50446002624F0010418480F
:1040C00090F8240008B1002070BD1548807A10B91E
:1040D0004FF0FF30F8E71248057C807A2040104905
:1040E00008740846007CA04202D04FF0FF3600E082
:1040F000002614B90A48007D18B1012001F054F8D7
:1041000002E0002001F050F83CB100F049FB20B182
:10411000034805744FF0FF30D6E73046D4E700007F
:104120002800002001461148407A30B1012807D00C
:10413000022808D003280CD108E0022008700BE008
:104140000420087008E00820087005E010200870BE
:1041500002E04FF0FF30704700BF0448C07C18B148
:1041600008784006000E08700020F4E728000020C0
:1041700001461348407A30B1012808D002280AD0FD
:10418000032810D10BE04FF4804008800EE041F688
:104190009C7008800AE04FF48050088006E04FF4DD
:1041A0000060088002E04FF0FF30704700BF044815
:1041B000C07C10B10888401008800020F5E700009E
:1041C0002800002001460248007C0870002070474B
:1041D0002800002001460F48007A30B1012807D09E
:1041E000022809D003280FD10AE0FA2008800EE047
:1041F0004FF4FA7008800AE04FF47A70088006E005
:104200004FF4FA60088002E00020088000BF00BF81
:10421000002070472800002001460E48007A30B187
:10422000012807D0022808D003280CD108E00A484A
:1042300008600BE00948086008E00948086005E0EC
:104240000848086002E04FF0FF30704700BF0020D0
:10425000FBE7000028000020000003430000834229
:10426000333303423333834101461248C07A08286E
:1042700017D2DFE800F01704070A0D101318BC204E
:10428000088013E06220088010E02A2008800DE0FA
:10429000142008800AE00A20088007E00520088032
:1042A00004E000BF00BF0020088000BF00BF002066
:1042B00070470000280000200146064890F82400BE
:1042C00010B14FF0FF3070470248C08908800020CD
:1042D000F9E70000280000201CB580208DF80000C0
:1042E000654A1268917C644A526810786B460122D4
:1042F000FFF759FE10B14FF0FF301CBD6420FEF7F0
:10430000C9FC00208DF800005B4A1268917C5A4A73
:10431000526810786B460122FFF745FE10B14FF04E
:10432000FF30EAE7544A1268917D534A5268107888
:104330006B460622FFF7FCFD10B14FF0FF30DCE7C3
:104340009DF80500C007400F9DF8031001F0010122
:1043500040EA41009DF8011001F0010140EA01042A
:1043600094B1012C03D101214348C17431E0022CE6
:1043700003D100214048C1742BE021463FA0FBF748
:104380004DFF4FF0FF30B8E73B4A1268D1783A4A08
:10439000526810786B460122FFF7CAFD10B14FF04A
:1043A000FF30AAE79DF8000000F00F042CB93D484B
:1043B000FBF734FF4FF0FF309FE7042C06D13AA003
:1043C000FBF72CFF01212C48C17402E000212A4890
:1043D000C174FF2128488172FF2027490872FF21FC
:1043E00025484172C1724FF6FF71C181FF210174EE
:1043F00081740121017380F82210002180F82310BC
:10440000417501751630016041608160163880F891
:10441000241080F82510C1844FF4FA6000F05CFC91
:1044200010B14FF0FF3068E7022000F025FB10B11B
:104430004FF0FF3061E72A2000F0C8FC10B14FF0C8
:10444000FF305AE7322000F003FD10B14FF0FF308B
:1044500053E70020FFF72EFE10B14FF0FF304CE77E
:10446000002000F04BFB10B14FF0FF3045E700207B
:1044700000F03CFD002040E728000020556E7375D9
:1044800070706F7274656420736F667477617265A3
:104490002070726F64756374207265762025642EB7
:1044A0000A000000807F000848616C662073656E1A
:1044B0007369746976697479207061727420666FAB
:1044C000756E642E0D0A00002DE9F04385B0054697
:1044D0000E4690469946294890F8250020B14FF0A5
:1044E000FF3005B0BDE8F08316B94FF0FF30F8E7B4
:1044F000002423E0281B102801DD102000E0281BE9
:1045000087B232193946204600F058FD10B14FF0FD
:10451000FF30E6E701AA3946204600F001F910B164
:104520004FF0FF30DDE730193A4601A9FBF7F2FE04
:1045300010B16FF00100D4E7E01984B2AC42D9DBCE
:104540004FEA28208DF8000008F0FF008DF80100E8
:104550000A4A1268917E094A526810786B46022214
:10456000FFF721FD10B14FF0FF30BAE701210348FA
:1045700080F82510A0F826900020B2E7280000203F
:1045800038B50446282C02DD4FF0FF3038BDDCB9C9
:10459000002000F0E5FB00208DF8000007208DF8DA
:1045A00001002E4A1268917C2C4A526810786B46A2
:1045B0000222FFF7F8FC10B14FF0FF30E6E70021D0
:1045C000264801750020E1E7012000F0C9FB20200A
:1045D0008DF80000012C06D100208DF80100052087
:1045E00000F0F4FB17E0052C06DC01208DF801003B
:1045F000052000F0EBFB0EE0142C06DC02208DF809
:1046000001000A2000F0E2FB05E003208DF8010024
:10461000142000F0DBFB9DF80100072101EB801066
:10462000C0B28DF801000D4A1268917C0B4A5268A5
:1046300010786B460222FFF7B6FC10B14FF0FF3046
:10464000A4E7082105488172002101730121017549
:104650000020FFF72FFD002098E700002800002031
:10466000F8B504460F4616462C4890F8240010B9B9
:104670004FF0FF30F8BD2948807A10B94FF0FF3075
:10468000F8E7264A1268917A244A526810786B46F5
:104690000222FFF74DFC10B14FF0FF30EAE79DF822
:1046A00001009DF8001040EA0125A54203DA002030
:1046B0003070401EDEE7194840684088B5EB600F57
:1046C00017DD164A1268517C144A526810786B46FE
:1046D0000122FFF72DFC10B14FF0FF30CAE79DF823
:1046E000000000F0100020B100F05AF86FF0010057
:1046F000C0E7E2B2094B1B68D97A084B5B681878AF
:104700003B46FFF715FC10B14FF0FF30B2E795FBC9
:10471000F4F0401E30700020ACE7000028000020BC
:10472000F8B504460D46164616B94FF0FF30F8BDF1
:104730001A48807A10B94FF0FF30F8E720128DF850
:104740000000E0B28DF801009DF8010028441349F3
:1047500049684989884202DD4FF0FF30E7E70F4A98
:104760001268117E0D4A526810786B460222FFF7DC
:104770001AFC10B14FF0FF30D9E7EAB2074B1B68C3
:10478000597D064B5B6818783346FFF7D1FB10B1B3
:104790004FF0FF30CBE70020C9E7000028000020E1
:1047A00008B56D48807A10B94FF0FF3008BD002081
:1047B0000090694A1268D17B674A526810786B464C
:1047C0000122FFF7F0FB10B14FF0FF30EEE7624A35
:1047D00012685179604A526810786B460122FFF7DF
:1047E000E2FB10B14FF0FF30E0E75B4A126811794D
:1047F000594A526810786B460122FFF7D4FB10B17A
:104800004FF0FF30D2E7544890F82400002850D0F1
:104810000C200090504A126811794F4A5268107863
:104820006B460122FFF7BFFB10B14FF0FF30BDE731
:10483000C02000904848807A00F0010020B19DF827
:10484000000040F020000090434A12681179424A6B
:10485000526810786B460122FFF7A5FB10B14FF0AC
:10486000FF30A3E73C48407C10B10220009001E0FB
:1048700000200090384A1268D17B374A526810787D
:104880006B460122FFF78FFB10B14FF0FF308DE731
:1048900000200090304A126851792F4A52681078EF
:1048A0006B460122FFF77FFB002852D04FF0FF300C
:1048B0007CE704200090284A12681179264A526841
:1048C00010786B460122FFF76EFB10B14FF0FF30FE
:1048D0006CE72148807C20B91F48807A00F00100F5
:1048E00010B94020009001E0602000901A4A126840
:1048F0001179194A526810786B460122FFF753FB71
:1049000010B14FF0FF3051E71348407C10B1012047
:10491000009001E0002000900F4A1268D17B0E4AFF
:10492000526810786B460122FFF73DFB10B14FF043
:10493000FF303BE7084A12685179074A52681078FD
:10494000054B10330122FFF72EFB10B14FF0FF3063
:104950002CE700202AE70000280000202DE9F04F76
:104960008DB083460F4602200C90424890F82400F8
:1049700020B1002000F068F9012600E0002603A81D
:10498000FFF728FC05A8FFF7CDFB01A8FFF76CFC9B
:1049900002A8FFF791FC374890F80AA004A8FFF797
:1049A00011FC002407E0002239465846FFF700F8C2
:1049B00000B902E0641C022CF5DB00BF022C01D11F
:1049C000002528E0002407E0012206A909A8FEF737
:1049D000EFFF00B902E0641C022CF5DB00BF022CE3
:1049E00001D1002517E006A93846FDF77DFD00F04E
:1049F000FF0809A95846FFF713FA00F0FF09002540
:104A0000B9F1000F01D145F00105B8F1000F01D156
:104A100045F0020500BFFF2016490872FF21154826
:104A20004172C1724FF6FF71C181FF218172017421
:104A300001210173BDF80C0000F04EF99DF814003F
:104A400000F01AF8BDF8040000F0C0F9BDF8080045
:104A500000F0FEF9504600F049FA9DF81000FFF70B
:104A600029FB16B1012000F0EFF828460DB0BDE893
:104A7000F08F00002800002038B504461E48807AD8
:104A800010B94FF0FF3038BD022C06D0042C07D0EF
:104A9000082C08D0102C0CD108E0002000900BE06E
:104AA0000820009008E01020009005E018200090F9
:104AB00002E04FF0FF30E6E700BF0F48407A9DF874
:104AC0000010B0EBE10F01D10020DCE70A4A1268C8
:104AD000D179094A526810786B460122FFF763FAD0
:104AE00010B14FF0FF30CEE79DF80000C110024832
:104AF00041720020C7E700002800002038B50446B6
:104B00005048807CA04201D1002038BD002C46D006
:104B10004C4A126811794B4A526810786B46012250
:104B2000FFF706FA10B14FF0FF30EEE79DF80000F6
:104B300020F020000090434A12681179414A5268DF
:104B400010786B460122FFF72EFA10B14FF0FF30BC
:104B5000DBE70320FEF79EF802200090394890F82A
:104B6000220020B19DF8000040F080000090354800
:104B700090F8230020B19DF8000040F03000009034
:104B8000304A1268117D2F4A526810786B46012214
:104B9000FFF709FA002851D04FF0FF30B5E7294A56
:104BA00012681179274A526810786B460122FFF784
:104BB000BFF910B14FF0FF30A7E72248807A00F02C
:104BC000010028B19DF8000040F02000009004E0B2
:104BD0009DF8000020F0200000901A4A1268117918
:104BE000184A526810786B460122FFF7DCF910B1C1
:104BF0004FF0FF3089E70320FEF74CF8114890F89A
:104C0000220010B18020009001E0002000900D48AB
:104C100090F8230020B19DF8000040F03000009093
:104C2000084A1268117D074A526810786B460122C3
:104C3000FFF7B9F910B14FF0FF3066E7014884740F
:104C4000002062E72800002038B50446214890F88B
:104C50002400A04201D1002038BD24B31D4890F8A3
:104C6000250010B94FF0FF30F6E7002000F09CFA65
:104C70000020FFF743FF1749C88C00F0E9F8002037
:104C800000901449496808786B4601222321FFF7F8
:104C90008AF901210F4880F82410012000F084FADD
:104CA000FFF77EFD13E0002000F07EFA0948007C4B
:104CB00000900849496808786B4601222321FFF7D4
:104CC00072F90021034880F82410FFF769FD0020E5
:104CD000C2E700002800002038B504461F48807A4B
:104CE00010B94FF0FF3038BDFA2C09D0B4F5FA7F77
:104CF00009D0B4F57A7F09D0B4F5FA6F0CD108E089
:104D0000002000900BE00820009008E010200090A8
:104D100005E01820009002E04FF0FF30E3E700BF0D
:104D20000E48007A9DF80010B0EBE10F01D1002091
:104D3000D9E70A4A12689179084A526810786B4696
:104D40000122FFF730F910B14FF0FF30CBE79DF8AB
:104D50000000C010014908720020C4E728000020AC
:104D600038B50446184890F82300A04201D100202D
:104D700038BD14B13020009001E0002000901248AE
:104D8000807C20B19DF8000040F0020000900E48A9
:104D900090F8220020B19DF8000040F080000090C3
:104DA000094A1268117D084A526810786B46012240
:104DB000FFF7F9F810B14FF0FF30D9E7024880F85B
:104DC00023400020D4E700002800002038B5044626
:104DD0001E48807A10B94FF0FF3038BDBC2C02DB82
:104DE0000120009015E0622C02DB0220009010E010
:104DF0002A2C02DB032000900BE0142C02DB0420A1
:104E0000009006E00A2C02DB0520009001E006205D
:104E100000900E48C07A9DF80010884201D1002011
:104E2000DBE70A4A12689178084A526810786B46A4
:104E30000122FFF7B8F810B14FF0FF30CDE79DF831
:104E400000100248C1720020C7E7000028000020BF
:104E500038B504462448807A10B94FF0FF3038BD89
:104E6000214890F8240010B14FF0FF30F7E71E48BA
:104E7000007D50B134B1282C04DCE0B2FFF780FB98
:104E80000020ECE70020FFF77BFB042C01DA042470
:104E900004E0B4F57A7F01DD4FF47A744FF47A7050
:104EA00090FBF4F0401EC0B200900F4A1268517897
:104EB0000D4A526810786B460122FFF774F810B162
:104EC0004FF0FF30CBE79DF80000401C4FF47A71A3
:104ED00091FBF0F081B20448C1810146C9894810B4
:104EE000FFF774FF0020BAE72800002038B5044619
:104EF00004F0700010B10120009005E014B1002012
:104F0000009001E0402000902B4A1268917C2A4AD0
:104F1000526810786B460122FFF745F820B1002156
:104F200025488172481E38BD9DF8000020F04001E0
:104F3000214801730020009004F0400020B99DF842
:104F4000000040F00400009004F0200020B99DF81B
:104F5000000040F00200009004F0100020B99DF81D
:104F6000000040F00100009004F0080020B99DF816
:104F7000000040F0380000900F4A1268D17C0E4AC1
:104F8000526810786B460122FFF70DF820B100211E
:104F900009488172481EC6E724B1082C02D00020BF
:104FA000FFF7DEFE04488472002101753220FDF710
:104FB00071FE0020B7E7000028000020F8B5044685
:104FC0000D46164616B94FF0FF30F8BD1A48807AE4
:104FD00010B94FF0FF30F8E720128DF80000E0B272
:104FE0008DF801009DF8010028441349496849895A
:104FF000884202DD4FF0FF30E7E70F4A1268117E6A
:105000000D4A526810786B460222FEF7CCFF10B1B1
:105010004FF0FF30D9E7EAB2074B1B68597D064BCA
:105020005B6818783346FEF7BEFF10B14FF0FF30D3
:10503000CBE70020C9E70000280000200146002936
:1050400001DA484200E0084670477047F8B500248E
:105050001B480468FCF760F91AA214210020FCF731
:1050600021FB00211648006801F09AF913D217A21B
:1050700014214620FCF716FB84F00046304601F070
:1050800043F90546102003232A46142100904B20A3
:10509000FCF7BEFA10E00EA214214620FCF702FB3A
:1050A000204601F031F90546102003232A46142139
:1050B00000904B20FCF7ACFAFCF730FAF8BD00008A
:1050C0006400002050697463680000002D00000037
:1050D0002000000010B50246012000E050430B1EE6
:1050E000A1F10104E1B2F9D110BD000070B588B0A2
:1050F00002A905A8FFF732FC0446072C3FD101A8FE
:10510000FFF78AF8059801F01FF90646019901F0AA
:105110007BF9054601F0DCF80590069801F014F9DA
:105120000646019901F070F9054601F0D1F80690A4
:10513000079801F009F90646019901F065F905465D
:1051400001F0C6F8079005A8FEF728F96846FFF7B2
:105150000FF8BDF80010029848430290BDF8001007
:10516000039848430390BDF8001004984843049006
:1051700002A8FEF743F803A0FBF750F800BF08B001
:1051800070BD000073657474696E67206269617335
:105190002073756363657366756C6C79202E2E2E93
:1051A0002E2E2E0D0A00000038B50446214890F836
:1051B0002400C0B114B10220009001E00020009052
:1051C0001C4A1268D17B1B4A526810786B46012238
:1051D000FEF7E9FE10B14FF0FF3038BD9DF800102A
:1051E0001448417423E01348807A10B94FF0FF301F
:1051F000F3E724B10F48407C08B10020EDE714B17B
:105200000120009001E0002000900A4A1268D17B42
:10521000084A526810786B460122FEF7C4FE10B1AE
:105220004FF0FF30D9E79DF800100248417400208C
:10523000D3E70000280000202DE9F04106460F4684
:1052400000F0E6FC041E0D4618BF0120284320F0A4
:105250000040C0F17F6000F1E040C00F0ED0301C74
:1052600018BF0120384320F00040C0F17F6000F1FA
:10527000E040C00F04BF0120FBF700F9204629469B
:10528000BDE8F08170B504460D463E48007801281F
:1052900003D03D48007801282FD14FF07E513B4884
:1052A000006800F0B1FE3949064608604FF07E51B3
:1052B00000F0DAFF07D16019FFF7C0FE064601F0E3
:1052C00043F83349086032480168324800F00AFF69
:1052D0003149086031493048006801F061F802D274
:1052E0002E482D4908602E492B48006801F058F9D6
:1052F0000BD22B482849086007E028482649086057
:10530000002022490860224908601E4800780128D0
:1053100008D1214801682348006800F075FE214942
:1053200008600FE018480078012808D11A48016881
:105330001C48006801F066F91A49086002E0002084
:1053400018490860184801681648006801F028F9F3
:1053500003D215480068134908601348006880F0BC
:10536000004610480168304601F01AF905D20E488F
:10537000006880F000400B4908600A48006800F0AF
:10538000A7FF70BDF8000020F9000020D800002021
:10539000DC00002000007A44D40000200000C0405F
:1053A00000004842D0000020CC00002010B586B09C
:1053B0000446012144F20400FCF7D4F94FF40070D4
:1053C000ADF8140003208DF8160018208DF8170092
:1053D00005A91548FBF796FB4FF48060ADF8140063
:1053E00004208DF8170005A90F48FBF78BFB0194EB
:1053F0000020ADF80800ADF80A00ADF80C00ADF8DB
:1054000010000C20ADF80E0001A90848FCF7E4FEDE
:10541000002240F225510548FCF7B8FE012103485F
:10542000FCF7A8FE06B010BD00080140003801409E
:105430002DE9F35F45480078012804D1444800680D
:10544000444908600DE044480078012806D14048EE
:10545000006880F000403F49086002E000203D49BC
:105460000860DDE90001FBF7BBFD044600F06CFFBE
:105470003A4908603A48006800F09AFD06464FF045
:105480006632384B00F0BAFA044600F07DF8344931
:1054900008603248006800F08BFD80464FF03332E0
:1054A000314B00F0ABFA04460D462D48006800F081
:1054B0007FFD064622462B4600F098F8824600F013
:1054C00063F827490860084601682848006800F02A
:1054D0009BFD264908601F4801682448006800F0C9
:1054E00093FD2249086022492048006801F058F8DD
:1054F00002D21F481D4908601E491C48006800F080
:105500004FFF02D21B48194908601B480168174821
:10551000006800F079FF0646184900F0E3FD0446F4
:10552000174801680E48006800F06EFF06461349F0
:1055300000F0D8FD0546214600F066FD11490860DF
:105540000846006800F0C4FEBDE8FC9FF60000209D
:10555000C4000020C0000020F7000020B800002098
:10556000BC0000206666E63F3333D33FC80000200E
:1055700000144D4800144DC8980000200000C84297
:1055800094000020B400002021F00042A2F16052FB
:10559000B2F5801F01F0004328BFD2F17F6C0BD918
:1055A0005FEA001C43EAC20242EB507018BF70472A
:1055B00028BF20F001007047B2F5801FBCBF18461D
:1055C00070474FEA410C1CF5001F02D2084600F05C
:1055D000E2BF70B500F0BCFA00000089FFF7F6BF2B
:1055E0004FF00040A0F580007047000010B591EA30
:1055F000030F48BF83F0004300F1F883841A71EB76
:10560000030C05D2121943EB0C03001B61EB0C01D8
:10561000DFF824E14FEA1154A4EB135C1EEA430FB8
:1056200018BF9EEA445F73D023EA0E03DCF1200E1C
:1056300021EA045143F4801332D322FA0CFE10EB1A
:105640000E0023FA0CFE41EB0E01CCF1200E03FA02
:105650000EFE10EB0E0051F10001B1F5801FCCF1F0
:10566000200E32D201EB045112FA0EF2BDE81040C6
:1056700058BF7047401C38BF5FEA420218BF7047EE
:10568000002814BF20F0010041F100014FEA41035E
:1056900013F5001F38BF7047A1F1C04100F0A6BA52
:1056A000012A43EB0302ACF1200CDCF11F0E32BFE8
:1056B0004FF0000E23FA0CF310EB030041EB045102
:1056C000B4EB115FD0D0A1EB045101F58011490872
:1056D0005FEA300001EB04510ED350F1000038BFF7
:1056E00012FA0EFE08D1BDE81040C9E7401C38BFD1
:1056F0005FEA4202CAD1C3E7BDE810404FEA410366
:1057000013F5001F38BF7047A1F1C04100F06EBA19
:105710009EEA445F08D011EA5E0FBDE8104004BF66
:1057200001F0004100207047BDE8104070B500F066
:105730000FFA00BF64FBBE3E0000E0FF02494FF0DD
:10574000000000F0D4BF00BF0000F87F2DE9C04189
:1057500030B4DFF8A0C23CEA111418BF3CEA1314BD
:1057600000F0EC8081EA03051CEA111444EAD574C8
:1057700018BF1CEA131500F0C780A4EB05044FF016
:10578000004545EAC12145EAC32341EA505143EAB5
:10579000525304F17F74994204F500344FEAC0205B
:1057A0004FEAC22208BF904200F09C804FEA136586
:1057B0000FF24016765D4FEA134506FB05F7C7F179
:1057C000807706FB07F74FEAD737A7FB03687642D7
:1057D000C8F58038A7FB06CE38BFA8F1010807FB43
:1057E00008E64FF0000EA6FB028CE6FB03CEDCF1D0
:1057F000000CCEF1004E38BFAEF1010EA6FB0C58E6
:105800004FF000074FF00005E6FB0E87A1FB08C62E
:10581000A0FB07CE16EB0E0645F10005E1FB076580
:1058200015F1E04E7EBFA4F580345FEA46066D4177
:1058300016F1800745F100054FEA17274FEA066683
:1058400047EA0567A6F1DE46B6F1805F4FEA152507
:105850001FD9384624F0010C05EBC471BCF1FE6F72
:1058600001EB0C1102D8F0BCBDE8008124425CBF02
:1058700001F5801E9EEAC47F02D4F0BCBDE8008121
:10588000244238D4F0BCA1F1C041BDE8004100F091
:10589000ADB94FEAD22242EA43524FEAD323A7FBE3
:1058A00002864FEAD02040EA415007FB03661EEA19
:1058B0000E0F4FEAD12105FB026658BFA6EB00563A
:1058C000B6EB00564FEA520E4EEAC37E18EB0E0EB0
:1058D00056EB530EBDD518EB02085E417F1C55F107
:1058E0000005B6E74FF480154FF000074FF00006B3
:1058F0004FF00008ADE7F0BC4FF0000001F1C041EF
:1059000001F00041BDE8008111EA0C1F0CEA1315FB
:1059100000D00CE013EA0C1F00F025804FF00000CF
:10592000F0BC81EA030101F00041BDE80081F0BC58
:10593000BDE8004181EA030100F058B9F0BCBDE8C0
:10594000004170B500F004F9097EFC3E00F007B894
:1059500081EA03014FF0000001F00041704781EA45
:10596000030100F043B9F0BCBDE800414FF0000076
:1059700021497047FFFDFBF9F7F5F4F2F0EEEDEB8E
:10598000E9E8E6E4E3E1E0DEDDDBDAD8D7D5D4D33D
:10599000D1D0CFCDCCCBCAC8C7C6C5C4C2C1C0BF89
:1059A000BEBDBCBBBAB9B8B7B6B5B4B3B2B1B0AF8F
:1059B000AEADACABAAA9A8A8A7A6A5A4A3A3A2A173
:1059C000A09F9F9E9D9C9C9B9A999998979796952E
:1059D00095949393929191908F8F8E8E8D8C8C8BCA
:1059E0008B8A898988888787868585848483838252
:1059F000828181800000FF070000F87FDFF848C146
:105A000070B51CEA111E1EBF1CEA13159EEA0C0F8E
:105A100095EA0C0F00F06F8081EA030423EA4C132F
:105A20004EEAD47E21EA4C1141F4801143F48013F4
:105A3000AE44A1FB024CA0FB0365AEF17F7E36199C
:105A400055EB0C05A1FB034C4CF10003A0FB021C21
:105A500016EB0C06654153F10003094218BF46F0EE
:105A6000010613F4007F0BD14FEA03314FEA0530F2
:105A7000340341EA155140EA16506FF003020AE080
:105A80004FEAC3214FEAC520F40241EA555140EAEA
:105A900056506FF0020202EB2E4201EB025585EAEE
:105AA000CE710AD05FEA440C18BF24F0004450F1D4
:105AB000000041F1000120EAD47040F2FE7C624512
:105AC00000D270BDA84214BF4FF080444FF0404454
:105AD000002E08BF0024BEF1806FA8BFA1F1C04115
